:100000000C9456000C9473000C9473000C947300C1
:100010000C9473000C9473000C9473000C94730094
:100020000C9473000C9473000C9473000C94730084
:100030000C9473000C9473000C9473000C94730074
:100040000C9473000C9473000C9473000C94730064
:100050000C9473000C9473000C9473000C94730054
:100060000C9473000C9423010C9473000C94730093
:100070000C9473000C9473000C9473000C94730034
:100080000C9473000C9473000C9473000C94730024
:100090000C9473000C9473000C9473000C94730014
:1000A0000C9473000C9473000C94730011241FBE05
:1000B000CFEFDAE0DEBFCDBF11E0A0E0B1E0E0E7D6
:1000C000F5E002C005900D92A238B107D9F721E002
:1000D000A2E8B1E001C01D92A639B207E1F70E9483
:1000E00032020C94B6020C94000087E084B983E2DB
:1000F0008AB982E58CBD80E28BB908958EBD0DB4BE
:1001000007FEFDCF08959BB183E089278BB9089541
:100110008BB183608BB90E94830084E00E947E00D3
:1001200085E00E947E000E9483008FE39CE9019796
:10013000F1F700C000000E94830082E00E947E0070
:1001400083E00E947E000E9483008FE39CE9019778
:10015000F1F700C000000E94830083E00E947E004F
:100160008FE00E947E000E9483008FE39CE901974C
:10017000F1F700C000000E94830081E00E947E0031
:100180008FEF0E947E000E9483008FE39CE901971D
:10019000F1F700C000000E94830087E00E947E000B
:1001A00080E00E947E000E9483000895E9ECF0E068
:1001B00080818861808386E08093CA008081806826
:1001C00080831092CD0087E68093CC0078940895C8
:1001D000E8ECF0E0908195FFFDCF8093CE0008958C
:1001E000CF93DF93EC018881882331F021960E9420
:1001F000E80089918111FBCFDF91CF910895CF93D2
:10020000C82F8F3058F40E94830082E00E947E0045
:100210008C2F0E947E000E9483000EC080E091E03F
:100220000E94F0000E94830082E00E947E0081E034
:100230000E947E000E948300CF9108958EE191E09C
:100240000E94F00008951F920F920FB60F92112492
:100250002F933F934F935F936F937F938F939F93CE
:10026000AF93BF93EF93FF93E0918401F0E0AEEC86
:10027000B0E08C91E357FE4F80838C910E94E800A0
:10028000E0918401F0E0E357FE4F80818A3041F035
:10029000E0918401F0E0E357FE4F80818D3031F42E
:1002A00081E0809395011092840105C080918401C2
:1002B0008F5F80938401FF91EF91BF91AF919F91E8
:1002C0008F917F916F915F914F913F912F910F90FF
:1002D0000FBE0F901F901895F89488E0EDE8F1E0BC
:1002E000A5E8B1E001900D928A95E1F7E0918D01CA
:1002F000F0E088E0DF011D928A95E9F7789408958F
:10030000CF93DF93CDB7DEB760970FB6F894DEBF1B
:100310000FBECDBF6DE370E085E891E00E946702FB
:10032000BC016F5F7F4FCE0101960E947202CE0129
:1003300001960E944902BC01990F880B990B6096A7
:100340000FB6F894DEBF0FBECDBFDF91CF910895F9
:10035000CF93DF93CDB7DEB760970FB6F894DEBFCB
:100360000FBECDBF6FE370E085E891E00E946702A9
:10037000BC016F5F7F4FCE0101960E947202CE01D9
:1003800001960E944902BC01990F880B990B609657
:100390000FB6F894DEBF0FBECDBFDF91CF910895A9
:1003A0001F93CF93DF93CDB7DEB728970FB6F8949E
:1003B000DEBF0FBECDBF182FCB014AE0BE016F5F7D
:1003C0007F4F0E947902812F0E94E80083E291E032
:1003D0000E94E800CE0101960E94F00080E291E0C8
:1003E0000E94F00028960FB6F894DEBF0FBECDBF76
:1003F000DF91CF911F91089580918501823419F08A
:10040000833431F12AC0809186018D3351F40E94EA
:100410008001862F60938201709383010E94FF0008
:1004200008958F3381F485E291E00E94F0000E94EC
:10043000A80160918201709183018091850190E013
:100440000E94D001089589E391E00E94F000089590
:100450008BE491E00E94F000089589E391E00E940E
:10046000F00008950E9475000E9488000E94D60046
:1004700082E791E00E94F0000E941E0180919501A8
:100480008130E1F70E946C010E94FC0110929501FD
:10049000F5CFFC0188279927E89421912032E9F3D0
:1004A000293010F02E30C8F32B3241F02D3239F4C0
:1004B000689404C00E948402820F911D21912053F0
:1004C0002A30C0F31EF4909581959F4F0895FC014A
:1004D0008191861721F08823D9F7992708953197BC
:1004E000CF010895FB01DC0101900D920020E1F79E
:1004F0000895BB274A3031F4992322F4BDE2909548
:1005000081959F4F0C948D027AE0979F902D879F45
:10051000802D910D11240895BB27FB015527AA2793
:10052000880F991FAA1FA41710F0A41B8395505180
:10053000B9F7A05DAA3308F0A95DA193009779F7F8
:10054000B111B1931192CB010C94A602DC01FC0114
:10055000672F71917723E1F7329704C07C916D93F7
:1005600070836291AE17BF07C8F30895F894FFCF68
:10057000496E76616C69642076616C75652073657F
:100580007474696E6720746F2031200A0D004F4B20
:100590000D0A003A004272696768746E65737320D1
:1005A0005175657279200A0D00496E76616C696437
:1005B00020636F6D6D616E640A0D004320636F6D83
:1005C0006D616E6420686173206E6F742062656572
:1005D0006E20696D706C656D656E7465642E200AA1
:1005E0000D0048656C6C6F2C20576F726C64210A8B
:0205F0000D00FC
:00000001FF
